{
  "_format": "hh-sol-artifact-1",
  "contractName": "TicketMaster",
  "sourceName": "contracts/Ticket.sol",
  "abi": [
    {
      "inputs": [
        {
          "internalType": "uint256",
          "name": "_totalTickets",
          "type": "uint256"
        }
      ],
      "stateMutability": "nonpayable",
      "type": "constructor"
    },
    {
      "anonymous": false,
      "inputs": [
        {
          "indexed": true,
          "internalType": "uint256",
          "name": "seatNumber",
          "type": "uint256"
        },
        {
          "indexed": false,
          "internalType": "string",
          "name": "name",
          "type": "string"
        },
        {
          "indexed": false,
          "internalType": "string",
          "name": "email",
          "type": "string"
        }
      ],
      "name": "TicketBooked",
      "type": "event"
    },
    {
      "inputs": [],
      "name": "admin",
      "outputs": [
        {
          "internalType": "address",
          "name": "",
          "type": "address"
        }
      ],
      "stateMutability": "view",
      "type": "function"
    },
    {
      "inputs": [
        {
          "internalType": "string",
          "name": "name",
          "type": "string"
        },
        {
          "internalType": "string",
          "name": "email",
          "type": "string"
        },
        {
          "internalType": "uint256",
          "name": "seatNumber",
          "type": "uint256"
        }
      ],
      "name": "bookTicket",
      "outputs": [],
      "stateMutability": "nonpayable",
      "type": "function"
    },
    {
      "inputs": [],
      "name": "getAvailableTickets",
      "outputs": [
        {
          "internalType": "uint256",
          "name": "",
          "type": "uint256"
        }
      ],
      "stateMutability": "view",
      "type": "function"
    },
    {
      "inputs": [
        {
          "internalType": "uint256",
          "name": "seatNumber",
          "type": "uint256"
        }
      ],
      "name": "getTicket",
      "outputs": [
        {
          "internalType": "string",
          "name": "name",
          "type": "string"
        },
        {
          "internalType": "string",
          "name": "email",
          "type": "string"
        },
        {
          "internalType": "bool",
          "name": "isBooked",
          "type": "bool"
        }
      ],
      "stateMutability": "view",
      "type": "function"
    },
    {
      "inputs": [
        {
          "internalType": "uint256",
          "name": "_totalTickets",
          "type": "uint256"
        }
      ],
      "name": "setTotalTickets",
      "outputs": [],
      "stateMutability": "nonpayable",
      "type": "function"
    },
    {
      "inputs": [
        {
          "internalType": "uint256",
          "name": "",
          "type": "uint256"
        }
      ],
      "name": "tickets",
      "outputs": [
        {
          "internalType": "string",
          "name": "name",
          "type": "string"
        },
        {
          "internalType": "string",
          "name": "email",
          "type": "string"
        },
        {
          "internalType": "uint256",
          "name": "seatNumber",
          "type": "uint256"
        },
        {
          "internalType": "bool",
          "name": "isBooked",
          "type": "bool"
        }
      ],
      "stateMutability": "view",
      "type": "function"
    },
    {
      "inputs": [],
      "name": "ticketsAvailable",
      "outputs": [
        {
          "internalType": "uint256",
          "name": "",
          "type": "uint256"
        }
      ],
      "stateMutability": "view",
      "type": "function"
    },
    {
      "inputs": [],
      "name": "totalTickets",
      "outputs": [
        {
          "internalType": "uint256",
          "name": "",
          "type": "uint256"
        }
      ],
      "stateMutability": "view",
      "type": "function"
    }
  ],
  "bytecode": "0x608060405234801561001057600080fd5b506040516200120638038062001206833981810160405281019061003491906100c4565b33600360006101000a81548173ffffffffffffffffffffffffffffffffffffffff021916908373ffffffffffffffffffffffffffffffffffffffff1602179055508060018190555080600281905550506100f1565b600080fd5b6000819050919050565b6100a18161008e565b81146100ac57600080fd5b50565b6000815190506100be81610098565b92915050565b6000602082840312156100da576100d9610089565b5b60006100e8848285016100af565b91505092915050565b61110580620001016000396000f3fe608060405234801561001057600080fd5b50600436106100885760003560e01c8063ae890c0a1161005b578063ae890c0a1461012e578063dd11247e1461014a578063f851a44014610168578063fa9527d81461018657610088565b8063182532341461008d57806350b44712146100ab5780635a8acacc146100de5780637dc379fa146100fc575b600080fd5b6100956101a2565b6040516100a291906107a5565b60405180910390f35b6100c560048036038101906100c09190610800565b6101a8565b6040516100d594939291906108d8565b60405180910390f35b6100e66102f5565b6040516100f391906107a5565b60405180910390f35b61011660048036038101906101119190610800565b6102ff565b6040516101259392919061092b565b60405180910390f35b61014860048036038101906101439190610800565b6104db565b005b6101526105c0565b60405161015f91906107a5565b60405180910390f35b6101706105c6565b60405161017d91906109b1565b60405180910390f35b6101a0600480360381019061019b9190610b01565b6105ec565b005b60025481565b60006020528060005260406000206000915090508060000180546101cb90610bbb565b80601f01602080910402602001604051908101604052809291908181526020018280546101f790610bbb565b80156102445780601f1061021957610100808354040283529160200191610244565b820191906000526020600020905b81548152906001019060200180831161022757829003601f168201915b50505050509080600101805461025990610bbb565b80601f016020809104026020016040519081016040528092919081815260200182805461028590610bbb565b80156102d25780601f106102a7576101008083540402835291602001916102d2565b820191906000526020600020905b8154815290600101906020018083116102b557829003601f168201915b5050505050908060020154908060030160009054906101000a900460ff16905084565b6000600254905090565b6060806000808411801561031557506001548411155b610354576040517f08c379a000000000000000000000000000000000000000000000000000000000815260040161034b90610c38565b60405180910390fd5b600080600086815260200190815260200160002060405180608001604052908160008201805461038390610bbb565b80601f01602080910402602001604051908101604052809291908181526020018280546103af90610bbb565b80156103fc5780601f106103d1576101008083540402835291602001916103fc565b820191906000526020600020905b8154815290600101906020018083116103df57829003601f168201915b5050505050815260200160018201805461041590610bbb565b80601f016020809104026020016040519081016040528092919081815260200182805461044190610bbb565b801561048e5780601f106104635761010080835404028352916020019161048e565b820191906000526020600020905b81548152906001019060200180831161047157829003601f168201915b50505050508152602001600282015481526020016003820160009054906101000a900460ff1615151515815250509050806000015181602001518260600151935093509350509193909250565b600360009054906101000a900473ffffffffffffffffffffffffffffffffffffffff1673ffffffffffffffffffffffffffffffffffffffff163373ffffffffffffffffffffffffffffffffffffffff161461056b576040517f08c379a000000000000000000000000000000000000000000000000000000000815260040161056290610ca4565b60405180910390fd5b60015481116105af576040517f08c379a00000000000000000000000000000000000000000000000000000000081526004016105a690610d36565b60405180910390fd5b806001819055508060028190555050565b60015481565b600360009054906101000a900473ffffffffffffffffffffffffffffffffffffffff1681565b6000811180156105fe57506001548111155b61063d576040517f08c379a000000000000000000000000000000000000000000000000000000000815260040161063490610c38565b60405180910390fd5b6000151560008083815260200190815260200160002060030160009054906101000a900460ff161515146106a6576040517f08c379a000000000000000000000000000000000000000000000000000000000815260040161069d90610da2565b60405180910390fd5b60405180608001604052808481526020018381526020018281526020016001151581525060008083815260200190815260200160002060008201518160000190816106f19190610f6e565b5060208201518160010190816107079190610f6e565b506040820151816002015560608201518160030160006101000a81548160ff021916908315150217905550905050600260008154809291906107489061106f565b9190505550807ff3e3388942922a3a6c84f0f9ecb59a03c27f0986511e0c2d4ad26318ad3cc2f1848460405161077f929190611098565b60405180910390a2505050565b6000819050919050565b61079f8161078c565b82525050565b60006020820190506107ba6000830184610796565b92915050565b6000604051905090565b600080fd5b600080fd5b6107dd8161078c565b81146107e857600080fd5b50565b6000813590506107fa816107d4565b92915050565b600060208284031215610816576108156107ca565b5b6000610824848285016107eb565b91505092915050565b600081519050919050565b600082825260208201905092915050565b60005b8381101561086757808201518184015260208101905061084c565b60008484015250505050565b6000601f19601f8301169050919050565b600061088f8261082d565b6108998185610838565b93506108a9818560208601610849565b6108b281610873565b840191505092915050565b60008115159050919050565b6108d2816108bd565b82525050565b600060808201905081810360008301526108f28187610884565b905081810360208301526109068186610884565b90506109156040830185610796565b61092260608301846108c9565b95945050505050565b600060608201905081810360008301526109458186610884565b905081810360208301526109598185610884565b905061096860408301846108c9565b949350505050565b600073ffffffffffffffffffffffffffffffffffffffff82169050919050565b600061099b82610970565b9050919050565b6109ab81610990565b82525050565b60006020820190506109c660008301846109a2565b92915050565b600080fd5b600080fd5b7f4e487b7100000000000000000000000000000000000000000000000000000000600052604160045260246000fd5b610a0e82610873565b810181811067ffffffffffffffff82111715610a2d57610a2c6109d6565b5b80604052505050565b6000610a406107c0565b9050610a4c8282610a05565b919050565b600067ffffffffffffffff821115610a6c57610a6b6109d6565b5b610a7582610873565b9050602081019050919050565b82818337600083830152505050565b6000610aa4610a9f84610a51565b610a36565b905082815260208101848484011115610ac057610abf6109d1565b5b610acb848285610a82565b509392505050565b600082601f830112610ae857610ae76109cc565b5b8135610af8848260208601610a91565b91505092915050565b600080600060608486031215610b1a57610b196107ca565b5b600084013567ffffffffffffffff811115610b3857610b376107cf565b5b610b4486828701610ad3565b935050602084013567ffffffffffffffff811115610b6557610b646107cf565b5b610b7186828701610ad3565b9250506040610b82868287016107eb565b9150509250925092565b7f4e487b7100000000000000000000000000000000000000000000000000000000600052602260045260246000fd5b60006002820490506001821680610bd357607f821691505b602082108103610be657610be5610b8c565b5b50919050565b7f496e76616c69642073656174206e756d62657200000000000000000000000000600082015250565b6000610c22601383610838565b9150610c2d82610bec565b602082019050919050565b60006020820190508181036000830152610c5181610c15565b9050919050565b7f4f6e6c792061646d696e2063616e2073657420746f74616c207469636b657473600082015250565b6000610c8e602083610838565b9150610c9982610c58565b602082019050919050565b60006020820190508181036000830152610cbd81610c81565b9050919050565b7f4e657720746f74616c206d7573742062652067726561746572207468616e206360008201527f757272656e7420746f74616c0000000000000000000000000000000000000000602082015250565b6000610d20602c83610838565b9150610d2b82610cc4565b604082019050919050565b60006020820190508181036000830152610d4f81610d13565b9050919050565b7f5469636b657420616c726561647920626f6f6b65640000000000000000000000600082015250565b6000610d8c601583610838565b9150610d9782610d56565b602082019050919050565b60006020820190508181036000830152610dbb81610d7f565b9050919050565b60008190508160005260206000209050919050565b60006020601f8301049050919050565b600082821b905092915050565b600060088302610e247fffffffffffffffffffffffffffffffffffffffffffffffffffffffffffffffff82610de7565b610e2e8683610de7565b95508019841693508086168417925050509392505050565b6000819050919050565b6000610e6b610e66610e618461078c565b610e46565b61078c565b9050919050565b6000819050919050565b610e8583610e50565b610e99610e9182610e72565b848454610df4565b825550505050565b600090565b610eae610ea1565b610eb9818484610e7c565b505050565b5b81811015610edd57610ed2600082610ea6565b600181019050610ebf565b5050565b601f821115610f2257610ef381610dc2565b610efc84610dd7565b81016020851015610f0b578190505b610f1f610f1785610dd7565b830182610ebe565b50505b505050565b600082821c905092915050565b6000610f4560001984600802610f27565b1980831691505092915050565b6000610f5e8383610f34565b9150826002028217905092915050565b610f778261082d565b67ffffffffffffffff811115610f9057610f8f6109d6565b5b610f9a8254610bbb565b610fa5828285610ee1565b600060209050601f831160018114610fd85760008415610fc6578287015190505b610fd08582610f52565b865550611038565b601f198416610fe686610dc2565b60005b8281101561100e57848901518255600182019150602085019450602081019050610fe9565b8683101561102b5784890151611027601f891682610f34565b8355505b6001600288020188555050505b505050505050565b7f4e487b7100000000000000000000000000000000000000000000000000000000600052601160045260246000fd5b600061107a8261078c565b91506000820361108d5761108c611040565b5b600182039050919050565b600060408201905081810360008301526110b28185610884565b905081810360208301526110c68184610884565b9050939250505056fea2646970667358221220effad65bab070f086bbba3a6ac737fc48f8de2cdf73b260943980d727e5eb8dc64736f6c63430008170033",
  "linkReferences": {},
  "deployedLinkReferences": {}
}