{
  "_format": "hh-sol-artifact-1",
  "contractName": "TicketMaster",
  "sourceName": "contracts/ticketmaster.sol",
  "abi": [
    {
      "anonymous": false,
      "inputs": [
        {
          "indexed": false,
          "internalType": "uint256",
          "name": "id",
          "type": "uint256"
        },
        {
          "indexed": false,
          "internalType": "address",
          "name": "buyer",
          "type": "address"
        }
      ],
      "name": "TicketPurchased",
      "type": "event"
    },
    {
      "inputs": [
        {
          "internalType": "uint256",
          "name": "_ticketId",
          "type": "uint256"
        }
      ],
      "name": "buyTicket",
      "outputs": [],
      "stateMutability": "payable",
      "type": "function"
    },
    {
      "inputs": [
        {
          "internalType": "string",
          "name": "_name",
          "type": "string"
        },
        {
          "internalType": "string",
          "name": "_venue",
          "type": "string"
        },
        {
          "internalType": "string",
          "name": "_date",
          "type": "string"
        }
      ],
      "name": "createTicket",
      "outputs": [],
      "stateMutability": "nonpayable",
      "type": "function"
    },
    {
      "inputs": [
        {
          "internalType": "uint256",
          "name": "_ticketId",
          "type": "uint256"
        }
      ],
      "name": "getTicket",
      "outputs": [
        {
          "components": [
            {
              "internalType": "uint256",
              "name": "id",
              "type": "uint256"
            },
            {
              "internalType": "string",
              "name": "name",
              "type": "string"
            },
            {
              "internalType": "string",
              "name": "venue",
              "type": "string"
            },
            {
              "internalType": "string",
              "name": "date",
              "type": "string"
            },
            {
              "internalType": "address",
              "name": "owner",
              "type": "address"
            }
          ],
          "internalType": "struct TicketMaster.Ticket",
          "name": "",
          "type": "tuple"
        }
      ],
      "stateMutability": "view",
      "type": "function"
    },
    {
      "inputs": [
        {
          "internalType": "uint256",
          "name": "",
          "type": "uint256"
        }
      ],
      "name": "ticketOwners",
      "outputs": [
        {
          "internalType": "address",
          "name": "",
          "type": "address"
        }
      ],
      "stateMutability": "view",
      "type": "function"
    },
    {
      "inputs": [
        {
          "internalType": "uint256",
          "name": "",
          "type": "uint256"
        }
      ],
      "name": "tickets",
      "outputs": [
        {
          "internalType": "uint256",
          "name": "id",
          "type": "uint256"
        },
        {
          "internalType": "string",
          "name": "name",
          "type": "string"
        },
        {
          "internalType": "string",
          "name": "venue",
          "type": "string"
        },
        {
          "internalType": "string",
          "name": "date",
          "type": "string"
        },
        {
          "internalType": "address",
          "name": "owner",
          "type": "address"
        }
      ],
      "stateMutability": "view",
      "type": "function"
    }
  ],
  "bytecode": "0x608060405234801561001057600080fd5b506111ea806100206000396000f3fe60806040526004361061004a5760003560e01c80633dc261f91461004f57806350b447121461007857806367dd74ca146100b95780637dc379fa146100d5578063eb2dbcf614610112575b600080fd5b34801561005b57600080fd5b5061007660048036038101906100719190610a3c565b61014f565b005b34801561008457600080fd5b5061009f600480360381019061009a9190610b19565b61025c565b6040516100b0959493929190610c15565b60405180910390f35b6100d360048036038101906100ce9190610b19565b61045a565b005b3480156100e157600080fd5b506100fc60048036038101906100f79190610b19565b6105d1565b6040516101099190610d69565b60405180910390f35b34801561011e57600080fd5b5061013960048036038101906101349190610b19565b61086a565b6040516101469190610d8b565b60405180910390f35b60008080549050905060006040518060a00160405280838152602001868152602001858152602001848152602001600073ffffffffffffffffffffffffffffffffffffffff1681525090806001815401808255809150506001900390600052602060002090600502016000909190919091506000820151816000015560208201518160010190816101e09190610fb2565b5060408201518160020190816101f69190610fb2565b50606082015181600301908161020c9190610fb2565b5060808201518160040160006101000a81548173ffffffffffffffffffffffffffffffffffffffff021916908373ffffffffffffffffffffffffffffffffffffffff160217905550505050505050565b6000818154811061026c57600080fd5b906000526020600020906005020160009150905080600001549080600101805461029590610dd5565b80601f01602080910402602001604051908101604052809291908181526020018280546102c190610dd5565b801561030e5780601f106102e35761010080835404028352916020019161030e565b820191906000526020600020905b8154815290600101906020018083116102f157829003601f168201915b50505050509080600201805461032390610dd5565b80601f016020809104026020016040519081016040528092919081815260200182805461034f90610dd5565b801561039c5780601f106103715761010080835404028352916020019161039c565b820191906000526020600020905b81548152906001019060200180831161037f57829003601f168201915b5050505050908060030180546103b190610dd5565b80601f01602080910402602001604051908101604052809291908181526020018280546103dd90610dd5565b801561042a5780601f106103ff5761010080835404028352916020019161042a565b820191906000526020600020905b81548152906001019060200180831161040d57829003601f168201915b5050505050908060040160009054906101000a900473ffffffffffffffffffffffffffffffffffffffff16905085565b60008054905081106104a1576040517f08c379a0000000000000000000000000000000000000000000000000000000008152600401610498906110d0565b60405180910390fd5b600073ffffffffffffffffffffffffffffffffffffffff166001600083815260200190815260200160002060009054906101000a900473ffffffffffffffffffffffffffffffffffffffff1673ffffffffffffffffffffffffffffffffffffffff1614610543576040517f08c379a000000000000000000000000000000000000000000000000000000000815260040161053a9061113c565b60405180910390fd5b336001600083815260200190815260200160002060006101000a81548173ffffffffffffffffffffffffffffffffffffffff021916908373ffffffffffffffffffffffffffffffffffffffff1602179055507f785f2865353ae960010300f584fc6c577b757a853af69a99c769df3c8232d3de81336040516105c692919061115c565b60405180910390a150565b6105d961089d565b6000805490508210610620576040517f08c379a0000000000000000000000000000000000000000000000000000000008152600401610617906110d0565b60405180910390fd5b6000828154811061063457610633611185565b5b90600052602060002090600502016040518060a00160405290816000820154815260200160018201805461066790610dd5565b80601f016020809104026020016040519081016040528092919081815260200182805461069390610dd5565b80156106e05780601f106106b5576101008083540402835291602001916106e0565b820191906000526020600020905b8154815290600101906020018083116106c357829003601f168201915b505050505081526020016002820180546106f990610dd5565b80601f016020809104026020016040519081016040528092919081815260200182805461072590610dd5565b80156107725780601f1061074757610100808354040283529160200191610772565b820191906000526020600020905b81548152906001019060200180831161075557829003601f168201915b5050505050815260200160038201805461078b90610dd5565b80601f01602080910402602001604051908101604052809291908181526020018280546107b790610dd5565b80156108045780601f106107d957610100808354040283529160200191610804565b820191906000526020600020905b8154815290600101906020018083116107e757829003601f168201915b505050505081526020016004820160009054906101000a900473ffffffffffffffffffffffffffffffffffffffff1673ffffffffffffffffffffffffffffffffffffffff1673ffffffffffffffffffffffffffffffffffffffff16815250509050919050565b60016020528060005260406000206000915054906101000a900473ffffffffffffffffffffffffffffffffffffffff1681565b6040518060a0016040528060008152602001606081526020016060815260200160608152602001600073ffffffffffffffffffffffffffffffffffffffff1681525090565b6000604051905090565b600080fd5b600080fd5b600080fd5b600080fd5b6000601f19601f8301169050919050565b7f4e487b7100000000000000000000000000000000000000000000000000000000600052604160045260246000fd5b61094982610900565b810181811067ffffffffffffffff8211171561096857610967610911565b5b80604052505050565b600061097b6108e2565b90506109878282610940565b919050565b600067ffffffffffffffff8211156109a7576109a6610911565b5b6109b082610900565b9050602081019050919050565b82818337600083830152505050565b60006109df6109da8461098c565b610971565b9050828152602081018484840111156109fb576109fa6108fb565b5b610a068482856109bd565b509392505050565b600082601f830112610a2357610a226108f6565b5b8135610a338482602086016109cc565b91505092915050565b600080600060608486031215610a5557610a546108ec565b5b600084013567ffffffffffffffff811115610a7357610a726108f1565b5b610a7f86828701610a0e565b935050602084013567ffffffffffffffff811115610aa057610a9f6108f1565b5b610aac86828701610a0e565b925050604084013567ffffffffffffffff811115610acd57610acc6108f1565b5b610ad986828701610a0e565b9150509250925092565b6000819050919050565b610af681610ae3565b8114610b0157600080fd5b50565b600081359050610b1381610aed565b92915050565b600060208284031215610b2f57610b2e6108ec565b5b6000610b3d84828501610b04565b91505092915050565b610b4f81610ae3565b82525050565b600081519050919050565b600082825260208201905092915050565b60005b83811015610b8f578082015181840152602081019050610b74565b60008484015250505050565b6000610ba682610b55565b610bb08185610b60565b9350610bc0818560208601610b71565b610bc981610900565b840191505092915050565b600073ffffffffffffffffffffffffffffffffffffffff82169050919050565b6000610bff82610bd4565b9050919050565b610c0f81610bf4565b82525050565b600060a082019050610c2a6000830188610b46565b8181036020830152610c3c8187610b9b565b90508181036040830152610c508186610b9b565b90508181036060830152610c648185610b9b565b9050610c736080830184610c06565b9695505050505050565b610c8681610ae3565b82525050565b600082825260208201905092915050565b6000610ca882610b55565b610cb28185610c8c565b9350610cc2818560208601610b71565b610ccb81610900565b840191505092915050565b610cdf81610bf4565b82525050565b600060a083016000830151610cfd6000860182610c7d565b5060208301518482036020860152610d158282610c9d565b91505060408301518482036040860152610d2f8282610c9d565b91505060608301518482036060860152610d498282610c9d565b9150506080830151610d5e6080860182610cd6565b508091505092915050565b60006020820190508181036000830152610d838184610ce5565b905092915050565b6000602082019050610da06000830184610c06565b92915050565b7f4e487b7100000000000000000000000000000000000000000000000000000000600052602260045260246000fd5b60006002820490506001821680610ded57607f821691505b602082108103610e0057610dff610da6565b5b50919050565b60008190508160005260206000209050919050565b60006020601f8301049050919050565b600082821b905092915050565b600060088302610e687fffffffffffffffffffffffffffffffffffffffffffffffffffffffffffffffff82610e2b565b610e728683610e2b565b95508019841693508086168417925050509392505050565b6000819050919050565b6000610eaf610eaa610ea584610ae3565b610e8a565b610ae3565b9050919050565b6000819050919050565b610ec983610e94565b610edd610ed582610eb6565b848454610e38565b825550505050565b600090565b610ef2610ee5565b610efd818484610ec0565b505050565b5b81811015610f2157610f16600082610eea565b600181019050610f03565b5050565b601f821115610f6657610f3781610e06565b610f4084610e1b565b81016020851015610f4f578190505b610f63610f5b85610e1b565b830182610f02565b50505b505050565b600082821c905092915050565b6000610f8960001984600802610f6b565b1980831691505092915050565b6000610fa28383610f78565b9150826002028217905092915050565b610fbb82610b55565b67ffffffffffffffff811115610fd457610fd3610911565b5b610fde8254610dd5565b610fe9828285610f25565b600060209050601f83116001811461101c576000841561100a578287015190505b6110148582610f96565b86555061107c565b601f19841661102a86610e06565b60005b828110156110525784890151825560018201915060208501945060208101905061102d565b8683101561106f578489015161106b601f891682610f78565b8355505b6001600288020188555050505b505050505050565b7f5469636b657420646f6573206e6f742065786973742e00000000000000000000600082015250565b60006110ba601683610b60565b91506110c582611084565b602082019050919050565b600060208201905081810360008301526110e9816110ad565b9050919050565b7f5469636b657420616c7265616479207075726368617365642e00000000000000600082015250565b6000611126601983610b60565b9150611131826110f0565b602082019050919050565b6000602082019050818103600083015261115581611119565b9050919050565b60006040820190506111716000830185610b46565b61117e6020830184610c06565b9392505050565b7f4e487b7100000000000000000000000000000000000000000000000000000000600052603260045260246000fdfea2646970667358221220042024e1a9da6753c7f9c6fc0eae9bee20825abc9c6f28761184537980e710b664736f6c63430008170033",
  "linkReferences": {},
  "deployedLinkReferences": {}
}